:100000000C944B000C9400000C9400000C94000025
:100010000C9400000C9400000C9400000C94000060
:100020000C9400000C9400000C9400000C94000050
:100030000C9400000C9400000C9400000C94000040
:100040000C9400000C9400000C9400000C94000030
:100050000C9400000C9400000C9400000C94000020
:100060000C9400000C9400000C9400000C94000010
:100070000C9400000C9400000C9400000C94000000
:100080000C9400000C9400000C940000000002008E
:1000900004008C000000F894EE27ECBBF1E0F5BF03
:1000A000E5BFE0936C00F8E1F1BDE1BD8DE0A2E0B9
:1000B000BB27ED938A95E9F780E090E1A0E0B1E0FD
:1000C000ED930197E9F7EEE8F0E0859195910097BF
:1000D00061F0A591B59105901590BF01F0010590D3
:1000E0000D920197E1F7FB01F0CF8BBFEFEFEDBF72
:1000F000E0E1EEBFC0E0D5E00C947E00EFEFE7BB9F
:10010000E0E0EABBDA9AD99AA0E0CA99A1E0A0306F
:1001100029F4E1E0F0E0E615F70509F00FC0F4017D
:1001200031964F01E8E0F0E08E169F061CF0E7E004
:10013000F0E04F0188BA6624772424D0CA9B03C01C
:10014000E1E0F0E03F01A0E0C999A1E0A03029F48E
:10015000E1E0F0E0EA15FB0509F00DC0F40131978C
:100160004F0100240814090414F08824992488BA43
:10017000AA24BB2407D0C99B03C0E1E0F0E05F01E3
:10018000C3CFFFCFA2E3B0E00C94C600109639F0C5
:1001900080ED97E00197F1F7A8951197C9F70895B9
:00000001FF
